{
  "contractName": "Twitter",
  "abi": [
    {
      "inputs": [
        {
          "internalType": "string",
          "name": "contents",
          "type": "string"
        }
      ],
      "name": "tweet",
      "outputs": [],
      "stateMutability": "nonpayable",
      "type": "function"
    },
    {
      "inputs": [
        {
          "internalType": "uint256",
          "name": "tweet_id",
          "type": "uint256"
        }
      ],
      "name": "like",
      "outputs": [],
      "stateMutability": "nonpayable",
      "type": "function"
    },
    {
      "inputs": [
        {
          "internalType": "uint256",
          "name": "tweet_id",
          "type": "uint256"
        }
      ],
      "name": "getTweet",
      "outputs": [
        {
          "components": [
            {
              "internalType": "address",
              "name": "from",
              "type": "address"
            },
            {
              "internalType": "string",
              "name": "contents",
              "type": "string"
            },
            {
              "internalType": "uint256",
              "name": "timestamp",
              "type": "uint256"
            },
            {
              "internalType": "uint256",
              "name": "likes",
              "type": "uint256"
            }
          ],
          "internalType": "struct Twitter.Tweet",
          "name": "t",
          "type": "tuple"
        }
      ],
      "stateMutability": "view",
      "type": "function",
      "constant": true
    }
  ],
  "bytecode": "0x608060405234801561001057600080fd5b506106e7806100206000396000f3fe608060405234801561001057600080fd5b50600436106100415760003560e01c8063c3ad5ecb14610046578063e82935da14610076578063fb46d4c514610092575b600080fd5b610060600480360381019061005b9190610491565b6100ae565b60405161006d9190610574565b60405180910390f35b610090600480360381019061008b9190610491565b6101ef565b005b6100ac60048036038101906100a79190610450565b610220565b005b6100b661030c565b600082815481106100c357fe5b90600052602060002090600402016040518060800160405290816000820160009054906101000a900473ffffffffffffffffffffffffffffffffffffffff1673ffffffffffffffffffffffffffffffffffffffff1673ffffffffffffffffffffffffffffffffffffffff168152602001600182018054600181600116156101000203166002900480601f0160208091040260200160405190810160405280929190818152602001828054600181600116156101000203166002900480156101cb5780601f106101a0576101008083540402835291602001916101cb565b820191906000526020600020905b8154815290600101906020018083116101ae57829003601f168201915b50505050508152602001600282015481526020016003820154815250509050919050565b600081815481106101fc57fe5b90600052602060002090600402016003016000815480929190600101919050555050565b61022861030c565b60405180608001604052803373ffffffffffffffffffffffffffffffffffffffff16815260200183815260200142815260200160008152509050600081908060018154018082558091505060019003906000526020600020906004020160009091909190915060008201518160000160006101000a81548173ffffffffffffffffffffffffffffffffffffffff021916908373ffffffffffffffffffffffffffffffffffffffff16021790555060208201518160010190805190602001906102f192919061034a565b50604082015181600201556060820151816003015550505050565b6040518060800160405280600073ffffffffffffffffffffffffffffffffffffffff1681526020016060815260200160008152602001600081525090565b828054600181600116156101000203166002900490600052602060002090601f016020900481019282601f1061038b57805160ff19168380011785556103b9565b828001600101855582156103b9579182015b828111156103b857825182559160200191906001019061039d565b5b5090506103c691906103ca565b5090565b5b808211156103e35760008160009055506001016103cb565b5090565b600082601f8301126103f857600080fd5b813561040b610406826105c3565b610596565b9150808252602083016020830185838301111561042757600080fd5b610432838284610647565b50505092915050565b60008135905061044a8161069a565b92915050565b60006020828403121561046257600080fd5b600082013567ffffffffffffffff81111561047c57600080fd5b610488848285016103e7565b91505092915050565b6000602082840312156104a357600080fd5b60006104b18482850161043b565b91505092915050565b6104c38161060b565b82525050565b60006104d4826105ef565b6104de81856105fa565b93506104ee818560208601610656565b6104f781610689565b840191505092915050565b600060808301600083015161051a60008601826104ba565b506020830151848203602086015261053282826104c9565b91505060408301516105476040860182610565565b50606083015161055a6060860182610565565b508091505092915050565b61056e8161063d565b82525050565b6000602082019050818103600083015261058e8184610502565b905092915050565b6000604051905081810181811067ffffffffffffffff821117156105b957600080fd5b8060405250919050565b600067ffffffffffffffff8211156105da57600080fd5b601f19601f8301169050602081019050919050565b600081519050919050565b600082825260208201905092915050565b60006106168261061d565b9050919050565b600073ffffffffffffffffffffffffffffffffffffffff82169050919050565b6000819050919050565b82818337600083830152505050565b60005b83811015610674578082015181840152602081019050610659565b83811115610683576000848401525b50505050565b6000601f19601f8301169050919050565b6106a38161063d565b81146106ae57600080fd5b5056fea26469706673582212203f336b509813826cb1b6a66880d42af06c1b59db2bb9b9d640b42ba526e1079864736f6c634300060c0033",
  "source": "// SPDX-License-Identifier: MIT\npragma solidity ^0.6.0;\npragma experimental ABIEncoderV2;\n\ncontract Twitter {\n    struct Tweet {\n        address from;\n        string contents;\n        uint timestamp;\n        uint likes;\n    }\n\n    Tweet[] tweets;\n\n    function tweet(string memory contents) public {\n        Tweet memory _tweet = Tweet(msg.sender, contents, block.timestamp, 0);\n        tweets.push(_tweet);\n    }\n\n    function like(uint tweet_id) public {\n        tweets[tweet_id].likes++;\n    }\n\n    function getTweet(uint tweet_id) view public returns(Tweet memory t) {\n        return tweets[tweet_id];\n    }\n}",
  "sourcePath": "/Users/darren/workspace/playground/truffle/contracts/Twitter.sol",
  "compiler": {
    "name": "solc",
    "version": "0.6.12+commit.27d51765.Emscripten.clang"
  },
  "schemaVersion": "3.0.23",
  "updatedAt": "2021-05-08T06:11:36.162Z",
  "networkType": "ethereum",
  "devdoc": {
    "kind": "dev",
    "methods": {},
    "version": 1
  },
  "userdoc": {
    "kind": "user",
    "methods": {},
    "version": 1
  }
}